{
  "contractName": "FundRaise",
  "abi": [
    {
      "anonymous": false,
      "inputs": [
        {
          "indexed": false,
          "internalType": "uint256",
          "name": "amount",
          "type": "uint256"
        }
      ],
      "name": "Donated",
      "type": "event"
    },
    {
      "anonymous": false,
      "inputs": [
        {
          "indexed": false,
          "internalType": "uint256",
          "name": "id",
          "type": "uint256"
        }
      ],
      "name": "EventCreated",
      "type": "event"
    },
    {
      "anonymous": false,
      "inputs": [
        {
          "indexed": false,
          "internalType": "uint256",
          "name": "id",
          "type": "uint256"
        }
      ],
      "name": "Withdraw",
      "type": "event"
    },
    {
      "inputs": [],
      "name": "eventId",
      "outputs": [
        {
          "internalType": "uint256",
          "name": "",
          "type": "uint256"
        }
      ],
      "stateMutability": "view",
      "type": "function",
      "constant": true
    },
    {
      "inputs": [
        {
          "internalType": "uint256",
          "name": "",
          "type": "uint256"
        }
      ],
      "name": "fundRaises",
      "outputs": [
        {
          "internalType": "string",
          "name": "title",
          "type": "string"
        },
        {
          "internalType": "string",
          "name": "description",
          "type": "string"
        },
        {
          "internalType": "uint256",
          "name": "goal",
          "type": "uint256"
        },
        {
          "internalType": "uint256",
          "name": "current",
          "type": "uint256"
        },
        {
          "internalType": "uint256",
          "name": "id",
          "type": "uint256"
        },
        {
          "internalType": "bool",
          "name": "status",
          "type": "bool"
        },
        {
          "internalType": "address",
          "name": "creator",
          "type": "address"
        }
      ],
      "stateMutability": "view",
      "type": "function",
      "constant": true
    },
    {
      "inputs": [
        {
          "internalType": "string",
          "name": "title",
          "type": "string"
        },
        {
          "internalType": "string",
          "name": "description",
          "type": "string"
        },
        {
          "internalType": "uint256",
          "name": "goal",
          "type": "uint256"
        }
      ],
      "name": "createEvent",
      "outputs": [],
      "stateMutability": "nonpayable",
      "type": "function"
    },
    {
      "inputs": [
        {
          "internalType": "uint256",
          "name": "idForEvent",
          "type": "uint256"
        }
      ],
      "name": "donate",
      "outputs": [],
      "stateMutability": "payable",
      "type": "function",
      "payable": true
    },
    {
      "inputs": [
        {
          "internalType": "uint256",
          "name": "idForEvent",
          "type": "uint256"
        }
      ],
      "name": "withdraw",
      "outputs": [],
      "stateMutability": "nonpayable",
      "type": "function"
    },
    {
      "inputs": [],
      "name": "getHomeData",
      "outputs": [
        {
          "components": [
            {
              "internalType": "string",
              "name": "title",
              "type": "string"
            },
            {
              "internalType": "uint256",
              "name": "id",
              "type": "uint256"
            }
          ],
          "internalType": "struct FundRaise.HomeCard[]",
          "name": "",
          "type": "tuple[]"
        }
      ],
      "stateMutability": "view",
      "type": "function",
      "constant": true
    }
  ],
  "bytecode": "0x60806040526000805534801561001457600080fd5b50610ef4806100246000396000f3fe6080604052600436106100555760003560e01c8063089cdd0c1461005a5780632c0946c7146100855780632e1a7d4d146100c85780633958f20d146100f15780635555fe171461011c578063f14faf6f14610145575b600080fd5b34801561006657600080fd5b5061006f610161565b60405161007c919061082c565b60405180910390f35b34801561009157600080fd5b506100ac60048036038101906100a79190610887565b610167565b6040516100bf97969594939291906109a9565b60405180910390f35b3480156100d457600080fd5b506100ef60048036038101906100ea9190610887565b6102e6565b005b3480156100fd57600080fd5b50610106610402565b6040516101139190610b7e565b60405180910390f35b34801561012857600080fd5b50610143600480360381019061013e9190610cd5565b61055c565b005b61015f600480360381019061015a9190610887565b6106e6565b005b60005481565b600160205280600052604060002060009150905080600001805461018a90610d8f565b80601f01602080910402602001604051908101604052809291908181526020018280546101b690610d8f565b80156102035780601f106101d857610100808354040283529160200191610203565b820191906000526020600020905b8154815290600101906020018083116101e657829003601f168201915b50505050509080600101805461021890610d8f565b80601f016020809104026020016040519081016040528092919081815260200182805461024490610d8f565b80156102915780601f1061026657610100808354040283529160200191610291565b820191906000526020600020905b81548152906001019060200180831161027457829003601f168201915b5050505050908060020154908060030154908060040154908060050160009054906101000a900460ff16908060050160019054906101000a900473ffffffffffffffffffffffffffffffffffffffff16905087565b600033905060006001600084815260200190815260200160002090508060050160019054906101000a900473ffffffffffffffffffffffffffffffffffffffff1673ffffffffffffffffffffffffffffffffffffffff168273ffffffffffffffffffffffffffffffffffffffff161461035e57600080fd5b8173ffffffffffffffffffffffffffffffffffffffff166108fc82600301549081150290604051600060405180830381858888f193505050501580156103a8573d6000803e3d6000fd5b5060008160050160006101000a81548160ff0219169083151502179055507f5b6b431d4476a211bb7d41c20d1aab9ae2321deee0d20be3d9fc9b1093fa6e3d836040516103f5919061082c565b60405180910390a1505050565b60606000805467ffffffffffffffff81111561042157610420610baa565b5b60405190808252806020026020018201604052801561045a57816020015b610447610756565b81526020019060019003908161043f5790505b50905060005b600054811015610554576000604051806040016040528060016000858152602001908152602001600020600001805461049890610d8f565b80601f01602080910402602001604051908101604052809291908181526020018280546104c490610d8f565b80156105115780601f106104e657610100808354040283529160200191610511565b820191906000526020600020905b8154815290600101906020018083116104f457829003601f168201915b505050505081526020018381525090508083838151811061053557610534610dc1565b5b602002602001018190525050808061054c90610e1f565b915050610460565b508091505090565b600080549050600033905060006040518060e00160405280878152602001868152602001858152602001600081526020018481526020016001151581526020018373ffffffffffffffffffffffffffffffffffffffff168152509050806001600085815260200190815260200160002060008201518160000190805190602001906105e8929190610770565b506020820151816001019080519060200190610605929190610770565b5060408201518160020155606082015181600301556080820151816004015560a08201518160050160006101000a81548160ff02191690831515021790555060c08201518160050160016101000a81548173ffffffffffffffffffffffffffffffffffffffff021916908373ffffffffffffffffffffffffffffffffffffffff16021790555090505060016000808282546106a09190610e68565b925050819055507f748ff5cfd7b66bdd8e21581c2a864756fe7085378c0003183e579bfafba28325836040516106d6919061082c565b60405180910390a1505050505050565b600060016000838152602001908152602001600020905060003490508082600301546107129190610e68565b82600301819055507fa7035481213199a4d64792e8c2fc7bff2b334e0935d33eaabc063a116485663381604051610749919061082c565b60405180910390a1505050565b604051806040016040528060608152602001600081525090565b82805461077c90610d8f565b90600052602060002090601f01602090048101928261079e57600085556107e5565b82601f106107b757805160ff19168380011785556107e5565b828001600101855582156107e5579182015b828111156107e45782518255916020019190600101906107c9565b5b5090506107f291906107f6565b5090565b5b8082111561080f5760008160009055506001016107f7565b5090565b6000819050919050565b61082681610813565b82525050565b6000602082019050610841600083018461081d565b92915050565b6000604051905090565b600080fd5b600080fd5b61086481610813565b811461086f57600080fd5b50565b6000813590506108818161085b565b92915050565b60006020828403121561089d5761089c610851565b5b60006108ab84828501610872565b91505092915050565b600081519050919050565b600082825260208201905092915050565b60005b838110156108ee5780820151818401526020810190506108d3565b838111156108fd576000848401525b50505050565b6000601f19601f8301169050919050565b600061091f826108b4565b61092981856108bf565b93506109398185602086016108d0565b61094281610903565b840191505092915050565b60008115159050919050565b6109628161094d565b82525050565b600073ffffffffffffffffffffffffffffffffffffffff82169050919050565b600061099382610968565b9050919050565b6109a381610988565b82525050565b600060e08201905081810360008301526109c3818a610914565b905081810360208301526109d78189610914565b90506109e6604083018861081d565b6109f3606083018761081d565b610a00608083018661081d565b610a0d60a0830185610959565b610a1a60c083018461099a565b98975050505050505050565b600081519050919050565b600082825260208201905092915050565b6000819050602082019050919050565b600082825260208201905092915050565b6000610a6e826108b4565b610a788185610a52565b9350610a888185602086016108d0565b610a9181610903565b840191505092915050565b610aa581610813565b82525050565b60006040830160008301518482036000860152610ac88282610a63565b9150506020830151610add6020860182610a9c565b508091505092915050565b6000610af48383610aab565b905092915050565b6000602082019050919050565b6000610b1482610a26565b610b1e8185610a31565b935083602082028501610b3085610a42565b8060005b85811015610b6c5784840389528151610b4d8582610ae8565b9450610b5883610afc565b925060208a01995050600181019050610b34565b50829750879550505050505092915050565b60006020820190508181036000830152610b988184610b09565b905092915050565b600080fd5b600080fd5b7f4e487b7100000000000000000000000000000000000000000000000000000000600052604160045260246000fd5b610be282610903565b810181811067ffffffffffffffff82111715610c0157610c00610baa565b5b80604052505050565b6000610c14610847565b9050610c208282610bd9565b919050565b600067ffffffffffffffff821115610c4057610c3f610baa565b5b610c4982610903565b9050602081019050919050565b82818337600083830152505050565b6000610c78610c7384610c25565b610c0a565b905082815260208101848484011115610c9457610c93610ba5565b5b610c9f848285610c56565b509392505050565b600082601f830112610cbc57610cbb610ba0565b5b8135610ccc848260208601610c65565b91505092915050565b600080600060608486031215610cee57610ced610851565b5b600084013567ffffffffffffffff811115610d0c57610d0b610856565b5b610d1886828701610ca7565b935050602084013567ffffffffffffffff811115610d3957610d38610856565b5b610d4586828701610ca7565b9250506040610d5686828701610872565b9150509250925092565b7f4e487b7100000000000000000000000000000000000000000000000000000000600052602260045260246000fd5b60006002820490506001821680610da757607f821691505b60208210811415610dbb57610dba610d60565b5b50919050565b7f4e487b7100000000000000000000000000000000000000000000000000000000600052603260045260246000fd5b7f4e487b7100000000000000000000000000000000000000000000000000000000600052601160045260246000fd5b6000610e2a82610813565b91507fffffffffffffffffffffffffffffffffffffffffffffffffffffffffffffffff821415610e5d57610e5c610df0565b5b600182019050919050565b6000610e7382610813565b9150610e7e83610813565b9250827fffffffffffffffffffffffffffffffffffffffffffffffffffffffffffffffff03821115610eb357610eb2610df0565b5b82820190509291505056fea2646970667358221220d7ebf60fc1eb2371d895aca28dc0810abe66f349197fe51a231a495e1ed2b09c64736f6c634300080a0033",
  "immutableReferences": {},
  "source": "// SPDX-License-Identifier: MIT\r\npragma solidity ^0.8.0;\r\n\r\ncontract FundRaise {\r\n    uint public eventId = 0;\r\n    mapping(uint => FundRaiseEvent) public fundRaises;\r\n\r\n    struct FundRaiseEvent{\r\n        string title;\r\n        string description;\r\n        uint goal;\r\n        uint current;\r\n        uint id;\r\n        bool status;\r\n        address creator;\r\n    }\r\n\r\n    struct HomeCard{\r\n        string title;\r\n        uint id;\r\n    }\r\n\r\n    event EventCreated(uint id);\r\n    event Donated(uint amount);\r\n    event Withdraw(uint id);\r\n\r\n    function createEvent(string memory title , string memory description, uint goal ) public {\r\n        uint idForNewEvent = eventId;\r\n        address eventCreator = msg.sender;\r\n        FundRaiseEvent memory newFundRaise = FundRaiseEvent(title,description,goal,0,idForNewEvent,true,eventCreator);\r\n\r\n        fundRaises[idForNewEvent] = newFundRaise;\r\n\r\n        eventId +=1;\r\n\r\n        emit EventCreated(idForNewEvent);\r\n    }\r\n\r\n    function donate(uint idForEvent) public payable {\r\n        FundRaiseEvent storage fundRaise = fundRaises[idForEvent];\r\n        uint amount = msg.value;\r\n\r\n        fundRaise.current = fundRaise.current + amount;\r\n\r\n        emit Donated(amount);\r\n    }\r\n\r\n    function withdraw(uint idForEvent) public {\r\n        address payable accountWithdrawing = payable(msg.sender);\r\n        FundRaiseEvent storage fundRaise = fundRaises[idForEvent];\r\n\r\n        require(accountWithdrawing == fundRaise.creator);\r\n\r\n        accountWithdrawing.transfer(fundRaise.current);\r\n\r\n        fundRaise.status = false;\r\n\r\n        emit Withdraw(idForEvent);\r\n    }\r\n\r\n    function getHomeData() public view returns (HomeCard[] memory){\r\n        HomeCard[] memory cards = new HomeCard[](eventId);\r\n\r\n        for(uint i = 0;i<eventId;i++){\r\n            HomeCard memory homeCard = HomeCard(fundRaises[i].title,i);\r\n            cards[i] = homeCard;\r\n        }\r\n\r\n        return cards;\r\n    }\r\n\r\n}",
  "sourcePath": "C:\\Users\\HP\\Desktop\\fund_raiser\\fundraise\\contracts\\FundRaise.sol",
  "compiler": {
    "name": "solc",
    "version": "0.8.10+commit.fc410830.Emscripten.clang"
  },
  "schemaVersion": "3.4.3",
  "updatedAt": "2021-11-21T18:06:32.731Z",
  "networkType": "ethereum",
  "devdoc": {
    "kind": "dev",
    "methods": {},
    "version": 1
  },
  "userdoc": {
    "kind": "user",
    "methods": {},
    "version": 1
  }
}